{
  "contractName": "Election",
  "abi": [
    {
      "inputs": [],
      "stateMutability": "nonpayable",
      "type": "constructor"
    },
    {
      "inputs": [
        {
          "internalType": "uint256",
          "name": "",
          "type": "uint256"
        }
      ],
      "name": "candidateDetails",
      "outputs": [
        {
          "internalType": "string",
          "name": "name",
          "type": "string"
        },
        {
          "internalType": "string",
          "name": "url",
          "type": "string"
        },
        {
          "internalType": "uint256",
          "name": "voteCount",
          "type": "uint256"
        },
        {
          "internalType": "uint256",
          "name": "candidateId",
          "type": "uint256"
        }
      ],
      "stateMutability": "view",
      "type": "function",
      "constant": true
    },
    {
      "inputs": [],
      "name": "owner",
      "outputs": [
        {
          "internalType": "address",
          "name": "",
          "type": "address"
        }
      ],
      "stateMutability": "view",
      "type": "function",
      "constant": true
    },
    {
      "inputs": [
        {
          "internalType": "uint256",
          "name": "",
          "type": "uint256"
        }
      ],
      "name": "pollsDetails",
      "outputs": [
        {
          "components": [
            {
              "internalType": "string",
              "name": "name",
              "type": "string"
            },
            {
              "internalType": "string",
              "name": "url",
              "type": "string"
            },
            {
              "internalType": "uint256",
              "name": "voteCount",
              "type": "uint256"
            },
            {
              "internalType": "uint256",
              "name": "candidateId",
              "type": "uint256"
            }
          ],
          "internalType": "struct Election.Candidate",
          "name": "candidate1",
          "type": "tuple"
        },
        {
          "components": [
            {
              "internalType": "string",
              "name": "name",
              "type": "string"
            },
            {
              "internalType": "string",
              "name": "url",
              "type": "string"
            },
            {
              "internalType": "uint256",
              "name": "voteCount",
              "type": "uint256"
            },
            {
              "internalType": "uint256",
              "name": "candidateId",
              "type": "uint256"
            }
          ],
          "internalType": "struct Election.Candidate",
          "name": "candidate2",
          "type": "tuple"
        },
        {
          "internalType": "string",
          "name": "prompt",
          "type": "string"
        },
        {
          "internalType": "bool",
          "name": "start",
          "type": "bool"
        },
        {
          "internalType": "bool",
          "name": "end",
          "type": "bool"
        }
      ],
      "stateMutability": "view",
      "type": "function",
      "constant": true
    },
    {
      "inputs": [
        {
          "internalType": "uint256",
          "name": "",
          "type": "uint256"
        }
      ],
      "name": "pollsPrompts",
      "outputs": [
        {
          "internalType": "string",
          "name": "",
          "type": "string"
        }
      ],
      "stateMutability": "view",
      "type": "function",
      "constant": true
    },
    {
      "inputs": [
        {
          "internalType": "address",
          "name": "",
          "type": "address"
        }
      ],
      "name": "voterDetails",
      "outputs": [
        {
          "internalType": "address",
          "name": "voterAddress",
          "type": "address"
        },
        {
          "internalType": "string",
          "name": "name",
          "type": "string"
        },
        {
          "internalType": "string",
          "name": "email",
          "type": "string"
        },
        {
          "internalType": "bool",
          "name": "hasVoted",
          "type": "bool"
        },
        {
          "internalType": "bool",
          "name": "isVerified",
          "type": "bool"
        }
      ],
      "stateMutability": "view",
      "type": "function",
      "constant": true
    },
    {
      "inputs": [
        {
          "internalType": "address",
          "name": "",
          "type": "address"
        }
      ],
      "name": "voterDetailsTest",
      "outputs": [
        {
          "internalType": "address",
          "name": "voterAddress",
          "type": "address"
        },
        {
          "internalType": "string",
          "name": "name",
          "type": "string"
        },
        {
          "internalType": "string",
          "name": "email",
          "type": "string"
        },
        {
          "internalType": "bool",
          "name": "hasVoted",
          "type": "bool"
        },
        {
          "internalType": "bool",
          "name": "isVerified",
          "type": "bool"
        }
      ],
      "stateMutability": "view",
      "type": "function",
      "constant": true
    },
    {
      "inputs": [
        {
          "internalType": "uint256",
          "name": "",
          "type": "uint256"
        }
      ],
      "name": "voters",
      "outputs": [
        {
          "internalType": "address",
          "name": "",
          "type": "address"
        }
      ],
      "stateMutability": "view",
      "type": "function",
      "constant": true
    },
    {
      "inputs": [
        {
          "internalType": "uint256",
          "name": "",
          "type": "uint256"
        }
      ],
      "name": "votersTest",
      "outputs": [
        {
          "internalType": "address",
          "name": "",
          "type": "address"
        }
      ],
      "stateMutability": "view",
      "type": "function",
      "constant": true
    },
    {
      "inputs": [],
      "name": "getOwner",
      "outputs": [
        {
          "internalType": "address",
          "name": "",
          "type": "address"
        }
      ],
      "stateMutability": "view",
      "type": "function",
      "constant": true
    },
    {
      "inputs": [
        {
          "internalType": "string",
          "name": "_candidateName1",
          "type": "string"
        },
        {
          "internalType": "string",
          "name": "_candidateName2",
          "type": "string"
        },
        {
          "internalType": "string",
          "name": "_candidateURL1",
          "type": "string"
        },
        {
          "internalType": "string",
          "name": "_candidateURL2",
          "type": "string"
        },
        {
          "internalType": "string",
          "name": "prompt",
          "type": "string"
        }
      ],
      "name": "addPoll",
      "outputs": [],
      "stateMutability": "nonpayable",
      "type": "function"
    },
    {
      "inputs": [
        {
          "internalType": "uint256",
          "name": "candidateId",
          "type": "uint256"
        }
      ],
      "name": "getCandidateDetails",
      "outputs": [
        {
          "internalType": "string",
          "name": "",
          "type": "string"
        },
        {
          "internalType": "string",
          "name": "",
          "type": "string"
        },
        {
          "internalType": "uint256",
          "name": "",
          "type": "uint256"
        },
        {
          "internalType": "uint256",
          "name": "",
          "type": "uint256"
        }
      ],
      "stateMutability": "view",
      "type": "function",
      "constant": true
    },
    {
      "inputs": [],
      "name": "getCandidateNumber",
      "outputs": [
        {
          "internalType": "uint256",
          "name": "",
          "type": "uint256"
        }
      ],
      "stateMutability": "view",
      "type": "function",
      "constant": true
    },
    {
      "inputs": [],
      "name": "getPollsNumber",
      "outputs": [
        {
          "internalType": "uint256",
          "name": "",
          "type": "uint256"
        }
      ],
      "stateMutability": "view",
      "type": "function",
      "constant": true
    },
    {
      "inputs": [
        {
          "internalType": "string",
          "name": "_name",
          "type": "string"
        },
        {
          "internalType": "string",
          "name": "_email",
          "type": "string"
        }
      ],
      "name": "requestVoter",
      "outputs": [],
      "stateMutability": "nonpayable",
      "type": "function"
    },
    {
      "inputs": [
        {
          "internalType": "address",
          "name": "addressVoter",
          "type": "address"
        },
        {
          "internalType": "string",
          "name": "_name",
          "type": "string"
        },
        {
          "internalType": "string",
          "name": "_email",
          "type": "string"
        }
      ],
      "name": "requestVoterTest",
      "outputs": [],
      "stateMutability": "nonpayable",
      "type": "function"
    },
    {
      "inputs": [
        {
          "internalType": "uint256",
          "name": "voterId",
          "type": "uint256"
        }
      ],
      "name": "getVoterDetails",
      "outputs": [
        {
          "internalType": "address",
          "name": "",
          "type": "address"
        },
        {
          "internalType": "string",
          "name": "",
          "type": "string"
        },
        {
          "internalType": "string",
          "name": "",
          "type": "string"
        },
        {
          "internalType": "bool",
          "name": "",
          "type": "bool"
        },
        {
          "internalType": "bool",
          "name": "",
          "type": "bool"
        }
      ],
      "stateMutability": "view",
      "type": "function",
      "constant": true
    },
    {
      "inputs": [
        {
          "internalType": "uint256",
          "name": "pollId",
          "type": "uint256"
        }
      ],
      "name": "getPollDetails",
      "outputs": [
        {
          "internalType": "uint256",
          "name": "",
          "type": "uint256"
        },
        {
          "internalType": "uint256",
          "name": "",
          "type": "uint256"
        },
        {
          "internalType": "string",
          "name": "",
          "type": "string"
        },
        {
          "internalType": "bool",
          "name": "",
          "type": "bool"
        },
        {
          "internalType": "bool",
          "name": "",
          "type": "bool"
        }
      ],
      "stateMutability": "view",
      "type": "function",
      "constant": true
    },
    {
      "inputs": [
        {
          "internalType": "address",
          "name": "addr",
          "type": "address"
        }
      ],
      "name": "getVoterDetailsTest",
      "outputs": [
        {
          "internalType": "address",
          "name": "",
          "type": "address"
        },
        {
          "internalType": "string",
          "name": "",
          "type": "string"
        },
        {
          "internalType": "string",
          "name": "",
          "type": "string"
        },
        {
          "internalType": "bool",
          "name": "",
          "type": "bool"
        },
        {
          "internalType": "bool",
          "name": "",
          "type": "bool"
        }
      ],
      "stateMutability": "view",
      "type": "function",
      "constant": true
    },
    {
      "inputs": [],
      "name": "getVoterCount",
      "outputs": [
        {
          "internalType": "uint256",
          "name": "",
          "type": "uint256"
        }
      ],
      "stateMutability": "view",
      "type": "function",
      "constant": true
    },
    {
      "inputs": [
        {
          "internalType": "address",
          "name": "_address",
          "type": "address"
        }
      ],
      "name": "verifyVoter",
      "outputs": [],
      "stateMutability": "nonpayable",
      "type": "function"
    },
    {
      "inputs": [
        {
          "internalType": "uint256",
          "name": "candidateId",
          "type": "uint256"
        }
      ],
      "name": "vote",
      "outputs": [],
      "stateMutability": "nonpayable",
      "type": "function"
    },
    {
      "inputs": [
        {
          "internalType": "uint256",
          "name": "candidateId",
          "type": "uint256"
        }
      ],
      "name": "voteAdmin",
      "outputs": [],
      "stateMutability": "nonpayable",
      "type": "function"
    },
    {
      "inputs": [],
      "name": "getVoterCountTest",
      "outputs": [
        {
          "internalType": "uint256",
          "name": "",
          "type": "uint256"
        }
      ],
      "stateMutability": "view",
      "type": "function",
      "constant": true
    },
    {
      "inputs": [
        {
          "internalType": "address",
          "name": "_address",
          "type": "address"
        }
      ],
      "name": "verifyVoterTest",
      "outputs": [],
      "stateMutability": "nonpayable",
      "type": "function"
    },
    {
      "inputs": [
        {
          "internalType": "address",
          "name": "voterAddress",
          "type": "address"
        },
        {
          "internalType": "uint256",
          "name": "candidateId",
          "type": "uint256"
        }
      ],
      "name": "voteTest",
      "outputs": [],
      "stateMutability": "nonpayable",
      "type": "function"
    },
    {
      "inputs": [
        {
          "internalType": "address",
          "name": "ownerAddr",
          "type": "address"
        },
        {
          "internalType": "uint256",
          "name": "candidateId",
          "type": "uint256"
        }
      ],
      "name": "voteAdminTest",
      "outputs": [],
      "stateMutability": "nonpayable",
      "type": "function"
    },
    {
      "inputs": [
        {
          "internalType": "string",
          "name": "prompt",
          "type": "string"
        }
      ],
      "name": "startElection",
      "outputs": [],
      "stateMutability": "nonpayable",
      "type": "function"
    },
    {
      "inputs": [
        {
          "internalType": "string",
          "name": "prompt",
          "type": "string"
        }
      ],
      "name": "endElection",
      "outputs": [],
      "stateMutability": "nonpayable",
      "type": "function"
    },
    {
      "inputs": [
        {
          "internalType": "string",
          "name": "prompt",
          "type": "string"
        }
      ],
      "name": "getStart",
      "outputs": [
        {
          "internalType": "bool",
          "name": "",
          "type": "bool"
        }
      ],
      "stateMutability": "view",
      "type": "function",
      "constant": true
    },
    {
      "inputs": [
        {
          "internalType": "string",
          "name": "prompt",
          "type": "string"
        }
      ],
      "name": "getEnd",
      "outputs": [
        {
          "internalType": "bool",
          "name": "",
          "type": "bool"
        }
      ],
      "stateMutability": "view",
      "type": "function",
      "constant": true
    }
  ],
  "bytecode": "0x608060405234801561001057600080fd5b50336000806101000a81548173ffffffffffffffffffffffffffffffffffffffff021916908373ffffffffffffffffffffffffffffffffffffffff1602179055506000600181905550600060028190555060006003819055506000600b81905550613d97806100806000396000f3fe608060405234801561001057600080fd5b50600436106101da5760003560e01c80637b8fe16611610104578063d2d836d2116100a2578063f544bed811610071578063f544bed8146105bd578063f619c3a3146105d9578063f6eb503d14610609578063fe43bc0714610639576101da565b8063d2d836d214610523578063d89aa59214610541578063da58c7d914610571578063ee43d9ad146105a1576101da565b80638da5cb5b116100de5780638da5cb5b146104815780639a0040e41461049f578063a96793b4146104d3578063ab8196cf14610507576101da565b80637b8fe1661461041357806388062bc814610447578063893d20e814610463576101da565b8063364dff251161017c5780635a404d281161014b5780635a404d28146103785780635df277fa146103a85780636247e532146103c457806373f2d93d146103f7576101da565b8063364dff25146102d65780633c4f5162146102f45780633fd49a74146103285780635938750d14610344576101da565b806309bd0950116101b857806309bd09501461023557806311174a291461025157806320a4e4c81461026f57806327f9fd50146102a3576101da565b80630121b93f146101df57806304dc1761146101fb57806308c5503214610219575b600080fd5b6101f960048036038101906101f491906133b2565b610655565b005b610203610948565b60405161021091906133ee565b60405180910390f35b610233600480360381019061022e919061354f565b610952565b005b61024f600480360381019061024a9190613625565b610b1f565b005b610259610bd5565b60405161026691906133ee565b60405180910390f35b61028960048036038101906102849190613625565b610bdf565b60405161029a959493929190613704565b60405180910390f35b6102bd60048036038101906102b891906133b2565b610f33565b6040516102cd9493929190613765565b60405180910390f35b6102de6110d7565b6040516102eb91906133ee565b60405180910390f35b61030e60048036038101906103099190613625565b6110e1565b60405161031f959493929190613704565b60405180910390f35b610342600480360381019061033d91906137b8565b611261565b005b61035e60048036038101906103599190613625565b61142f565b60405161036f959493929190613704565b60405180910390f35b610392600480360381019061038d91906133b2565b6115af565b60405161039f9190613843565b60405180910390f35b6103c260048036038101906103bd919061385e565b6115ee565b005b6103de60048036038101906103d991906133b2565b61195f565b6040516103ee9493929190613765565b60405180910390f35b610411600480360381019061040c9190613625565b611a9f565b005b61042d600480360381019061042891906133b2565b611b55565b60405161043e959493929190613704565b60405180910390f35b610461600480360381019061045c919061385e565b611e70565b005b61046b612188565b6040516104789190613843565b60405180910390f35b6104896121b1565b6040516104969190613843565b60405180910390f35b6104b960048036038101906104b491906133b2565b6121d5565b6040516104ca95949392919061389e565b60405180910390f35b6104ed60048036038101906104e891906133b2565b61232b565b6040516104fe9594939291906139bb565b60405180910390f35b610521600480360381019061051c91906133b2565b612687565b005b61052b61291a565b60405161053891906133ee565b60405180910390f35b61055b60048036038101906105569190613a23565b612924565b6040516105689190613a6c565b60405180910390f35b61058b600480360381019061058691906133b2565b612a29565b6040516105989190613843565b60405180910390f35b6105bb60048036038101906105b69190613a87565b612a68565b005b6105d760048036038101906105d29190613a23565b612db7565b005b6105f360048036038101906105ee91906133b2565b612f3f565b6040516106009190613b8e565b60405180910390f35b610623600480360381019061061e9190613a23565b612fdf565b6040516106309190613a6c565b60405180910390f35b610653600480360381019061064e9190613a23565b6130e4565b005b60001515600860003373ffffffffffffffffffffffffffffffffffffffff1673ffffffffffffffffffffffffffffffffffffffff16815260200190815260200160002060030160009054906101000a900460ff161515146106b557600080fd5b60011515600860003373ffffffffffffffffffffffffffffffffffffffff1673ffffffffffffffffffffffffffffffffffffffff16815260200190815260200160002060030160019054906101000a900460ff1615151461071557600080fd5b60005b60035481101561094457816006600083815260200190815260200160002060000160030154141561082b576006600082815260200190815260200160002060090160009054906101000a900460ff16801561079457506006600082815260200190815260200160002060090160019054906101000a900460ff16155b156108265760016006600083815260200190815260200160002060000160020160008282546107c39190613bdf565b925050819055506001600860003373ffffffffffffffffffffffffffffffffffffffff1673ffffffffffffffffffffffffffffffffffffffff16815260200190815260200160002060030160006101000a81548160ff0219169083151502179055505b610931565b8160066000838152602001908152602001600020600401600301541415610930576006600082815260200190815260200160002060090160009054906101000a900460ff16801561089d57506006600082815260200190815260200160002060090160019054906101000a900460ff16155b1561092f5760016006600083815260200190815260200160002060040160020160008282546108cc9190613bdf565b925050819055506001600860003373ffffffffffffffffffffffffffffffffffffffff1673ffffffffffffffffffffffffffffffffffffffff16815260200190815260200160002060030160006101000a81548160ff0219169083151502179055505b5b5b808061093c90613c35565b915050610718565b5050565b6000600354905090565b60006040518060a001604052803373ffffffffffffffffffffffffffffffffffffffff16815260200184815260200183815260200160001515815260200160001515815250905080600860003373ffffffffffffffffffffffffffffffffffffffff1673ffffffffffffffffffffffffffffffffffffffff16815260200190815260200160002060008201518160000160006101000a81548173ffffffffffffffffffffffffffffffffffffffff021916908373ffffffffffffffffffffffffffffffffffffffff1602179055506020820151816001019080519060200190610a3c9291906132c5565b506040820151816002019080519060200190610a599291906132c5565b5060608201518160030160006101000a81548160ff02191690831515021790555060808201518160030160016101000a81548160ff0219169083151502179055509050506007339080600181540180825580915050600190039060005260206000200160009091909190916101000a81548173ffffffffffffffffffffffffffffffffffffffff021916908373ffffffffffffffffffffffffffffffffffffffff160217905550600160026000828254610b139190613bdf565b92505081905550505050565b60008054906101000a900473ffffffffffffffffffffffffffffffffffffffff1673ffffffffffffffffffffffffffffffffffffffff163373ffffffffffffffffffffffffffffffffffffffff1614610b7757600080fd5b6001600860008373ffffffffffffffffffffffffffffffffffffffff1673ffffffffffffffffffffffffffffffffffffffff16815260200190815260200160002060030160016101000a81548160ff02191690831515021790555050565b6000600254905090565b600060608060008060005b600b54811015610f28578673ffffffffffffffffffffffffffffffffffffffff1660098281548110610c1f57610c1e613c7e565b5b9060005260206000200160009054906101000a900473ffffffffffffffffffffffffffffffffffffffff1673ffffffffffffffffffffffffffffffffffffffff161415610f1557600a60008873ffffffffffffffffffffffffffffffffffffffff1673ffffffffffffffffffffffffffffffffffffffff16815260200190815260200160002060000160009054906101000a900473ffffffffffffffffffffffffffffffffffffffff16600a60008973ffffffffffffffffffffffffffffffffffffffff1673ffffffffffffffffffffffffffffffffffffffff168152602001908152602001600020600101600a60008a73ffffffffffffffffffffffffffffffffffffffff1673ffffffffffffffffffffffffffffffffffffffff168152602001908152602001600020600201600a60008b73ffffffffffffffffffffffffffffffffffffffff1673ffffffffffffffffffffffffffffffffffffffff16815260200190815260200160002060030160009054906101000a900460ff16600a60008c73ffffffffffffffffffffffffffffffffffffffff1673ffffffffffffffffffffffffffffffffffffffff16815260200190815260200160002060030160019054906101000a900460ff16838054610df990613cdc565b80601f0160208091040260200160405190810160405280929190818152602001828054610e2590613cdc565b8015610e725780601f10610e4757610100808354040283529160200191610e72565b820191906000526020600020905b815481529060010190602001808311610e5557829003601f168201915b50505050509350828054610e8590613cdc565b80601f0160208091040260200160405190810160405280929190818152602001828054610eb190613cdc565b8015610efe5780601f10610ed357610100808354040283529160200191610efe565b820191906000526020600020905b815481529060010190602001808311610ee157829003601f168201915b505050505092509550955095509550955050610f2a565b8080610f2090613c35565b915050610bea565b505b91939590929450565b60608060008084600154118015610f4b575084600011155b156110cf57600460008681526020019081526020016000206000016004600087815260200190815260200160002060010160046000888152602001908152602001600020600201546004600089815260200190815260200160002060030154838054610fb690613cdc565b80601f0160208091040260200160405190810160405280929190818152602001828054610fe290613cdc565b801561102f5780601f106110045761010080835404028352916020019161102f565b820191906000526020600020905b81548152906001019060200180831161101257829003601f168201915b5050505050935082805461104290613cdc565b80601f016020809104026020016040519081016040528092919081815260200182805461106e90613cdc565b80156110bb5780601f10611090576101008083540402835291602001916110bb565b820191906000526020600020905b81548152906001019060200180831161109e57829003601f168201915b5050505050925093509350935093506110d0565b5b9193509193565b6000600154905090565b600a6020528060005260406000206000915090508060000160009054906101000a900473ffffffffffffffffffffffffffffffffffffffff169080600101805461112a90613cdc565b80601f016020809104026020016040519081016040528092919081815260200182805461115690613cdc565b80156111a35780601f10611178576101008083540402835291602001916111a3565b820191906000526020600020905b81548152906001019060200180831161118657829003601f168201915b5050505050908060020180546111b890613cdc565b80601f01602080910402602001604051908101604052809291908181526020018280546111e490613cdc565b80156112315780601f1061120657610100808354040283529160200191611231565b820191906000526020600020905b81548152906001019060200180831161121457829003601f168201915b5050505050908060030160009054906101000a900460ff16908060030160019054906101000a900460ff16905085565b60006040518060a001604052808573ffffffffffffffffffffffffffffffffffffffff16815260200184815260200183815260200160001515815260200160001515815250905080600a60008673ffffffffffffffffffffffffffffffffffffffff1673ffffffffffffffffffffffffffffffffffffffff16815260200190815260200160002060008201518160000160006101000a81548173ffffffffffffffffffffffffffffffffffffffff021916908373ffffffffffffffffffffffffffffffffffffffff160217905550602082015181600101908051906020019061134b9291906132c5565b5060408201518160020190805190602001906113689291906132c5565b5060608201518160030160006101000a81548160ff02191690831515021790555060808201518160030160016101000a81548160ff0219169083151502179055509050506009849080600181540180825580915050600190039060005260206000200160009091909190916101000a81548173ffffffffffffffffffffffffffffffffffffffff021916908373ffffffffffffffffffffffffffffffffffffffff1602179055506001600b60008282546114229190613bdf565b9250508190555050505050565b60086020528060005260406000206000915090508060000160009054906101000a900473ffffffffffffffffffffffffffffffffffffffff169080600101805461147890613cdc565b80601f01602080910402602001604051908101604052809291908181526020018280546114a490613cdc565b80156114f15780601f106114c6576101008083540402835291602001916114f1565b820191906000526020600020905b8154815290600101906020018083116114d457829003601f168201915b50505050509080600201805461150690613cdc565b80601f016020809104026020016040519081016040528092919081815260200182805461153290613cdc565b801561157f5780601f106115545761010080835404028352916020019161157f565b820191906000526020600020905b81548152906001019060200180831161156257829003601f168201915b5050505050908060030160009054906101000a900460ff16908060030160019054906101000a900460ff16905085565b600981815481106115bf57600080fd5b906000526020600020016000915054906101000a900473ffffffffffffffffffffffffffffffffffffffff1681565b600a60008373ffffffffffffffffffffffffffffffffffffffff1673ffffffffffffffffffffffffffffffffffffffff16815260200190815260200160002060030160009054906101000a900460ff16156116485761195b565b600a60008373ffffffffffffffffffffffffffffffffffffffff1673ffffffffffffffffffffffffffffffffffffffff16815260200190815260200160002060030160019054906101000a900460ff166116a15761195b565b60005b6003548110156119595760005b600154811015611945576004600082815260200190815260200160002060030154600660008481526020019081526020016000206000016003015414801561170e5750826004600083815260200190815260200160002060030154145b156117f8576006600083815260200190815260200160002060090160009054906101000a900460ff16801561176457506006600083815260200190815260200160002060090160019054906101000a900460ff16155b156117f35760016004600083815260200190815260200160002060020160008282546117909190613bdf565b925050819055506001600a60008673ffffffffffffffffffffffffffffffffffffffff1673ffffffffffffffffffffffffffffffffffffffff16815260200190815260200160002060030160006101000a81548160ff0219169083151502179055505b611932565b6004600082815260200190815260200160002060030154600660008481526020019081526020016000206004016003015414801561184b5750826004600083815260200190815260200160002060030154145b15611931576006600083815260200190815260200160002060090160009054906101000a900460ff1680156118a157506006600083815260200190815260200160002060090160019054906101000a900460ff16155b156119305760016004600083815260200190815260200160002060020160008282546118cd9190613bdf565b925050819055506001600a60008673ffffffffffffffffffffffffffffffffffffffff1673ffffffffffffffffffffffffffffffffffffffff16815260200190815260200160002060030160006101000a81548160ff0219169083151502179055505b5b5b808061193d90613c35565b9150506116b1565b50808061195190613c35565b9150506116a4565b505b5050565b600460205280600052604060002060009150905080600001805461198290613cdc565b80601f01602080910402602001604051908101604052809291908181526020018280546119ae90613cdc565b80156119fb5780601f106119d0576101008083540402835291602001916119fb565b820191906000526020600020905b8154815290600101906020018083116119de57829003601f168201915b505050505090806001018054611a1090613cdc565b80601f0160208091040260200160405190810160405280929190818152602001828054611a3c90613cdc565b8015611a895780601f10611a5e57610100808354040283529160200191611a89565b820191906000526020600020905b815481529060010190602001808311611a6c57829003601f168201915b5050505050908060020154908060030154905084565b60008054906101000a900473ffffffffffffffffffffffffffffffffffffffff1673ffffffffffffffffffffffffffffffffffffffff163373ffffffffffffffffffffffffffffffffffffffff1614611af757600080fd5b6001600a60008373ffffffffffffffffffffffffffffffffffffffff1673ffffffffffffffffffffffffffffffffffffffff16815260200190815260200160002060030160016101000a81548160ff02191690831515021790555050565b600060608060008085600254118015611b6f575085600011155b15611e6657600060078781548110611b8a57611b89613c7e565b5b9060005260206000200160009054906101000a900473ffffffffffffffffffffffffffffffffffffffff169050600860008273ffffffffffffffffffffffffffffffffffffffff1673ffffffffffffffffffffffffffffffffffffffff16815260200190815260200160002060000160009054906101000a900473ffffffffffffffffffffffffffffffffffffffff16600860008373ffffffffffffffffffffffffffffffffffffffff1673ffffffffffffffffffffffffffffffffffffffff168152602001908152602001600020600101600860008473ffffffffffffffffffffffffffffffffffffffff1673ffffffffffffffffffffffffffffffffffffffff168152602001908152602001600020600201600860008573ffffffffffffffffffffffffffffffffffffffff1673ffffffffffffffffffffffffffffffffffffffff16815260200190815260200160002060030160009054906101000a900460ff16600860008673ffffffffffffffffffffffffffffffffffffffff1673ffffffffffffffffffffffffffffffffffffffff16815260200190815260200160002060030160019054906101000a900460ff16838054611d4a90613cdc565b80601f0160208091040260200160405190810160405280929190818152602001828054611d7690613cdc565b8015611dc35780601f10611d9857610100808354040283529160200191611dc3565b820191906000526020600020905b815481529060010190602001808311611da657829003601f168201915b50505050509350828054611dd690613cdc565b80601f0160208091040260200160405190810160405280929190818152602001828054611e0290613cdc565b8015611e4f5780601f10611e2457610100808354040283529160200191611e4f565b820191906000526020600020905b815481529060010190602001808311611e3257829003601f168201915b505050505092509550955095509550955050611e67565b5b91939590929450565b600a60008373ffffffffffffffffffffffffffffffffffffffff1673ffffffffffffffffffffffffffffffffffffffff16815260200190815260200160002060030160009054906101000a900460ff1615611eca57612184565b60005b6003548110156121825760005b60015481101561216e5760046000828152602001908152602001600020600301546006600084815260200190815260200160002060000160030154148015611f375750826004600083815260200190815260200160002060030154145b15612021576006600083815260200190815260200160002060090160009054906101000a900460ff168015611f8d57506006600083815260200190815260200160002060090160019054906101000a900460ff16155b1561201c576001600460008381526020019081526020016000206002016000828254611fb99190613bdf565b925050819055506001600a60008673ffffffffffffffffffffffffffffffffffffffff1673ffffffffffffffffffffffffffffffffffffffff16815260200190815260200160002060030160006101000a81548160ff0219169083151502179055505b61215b565b600460008281526020019081526020016000206003015460066000848152602001908152602001600020600401600301541480156120745750826004600083815260200190815260200160002060030154145b1561215a576006600083815260200190815260200160002060090160009054906101000a900460ff1680156120ca57506006600083815260200190815260200160002060090160019054906101000a900460ff16155b156121595760016004600083815260200190815260200160002060020160008282546120f69190613bdf565b925050819055506001600a60008673ffffffffffffffffffffffffffffffffffffffff1673ffffffffffffffffffffffffffffffffffffffff16815260200190815260200160002060030160006101000a81548160ff0219169083151502179055505b5b5b808061216690613c35565b915050611eda565b50808061217a90613c35565b915050611ecd565b505b5050565b60008060009054906101000a900473ffffffffffffffffffffffffffffffffffffffff16905090565b60008054906101000a900473ffffffffffffffffffffffffffffffffffffffff1681565b6000806060600080856003541180156121ef575060008610155b15612321576006600087815260200190815260200160002060000160030154600660008881526020019081526020016000206004016003015460066000898152602001908152602001600020600801600660008a815260200190815260200160002060090160009054906101000a900460ff16600660008b815260200190815260200160002060090160019054906101000a900460ff1682805461229290613cdc565b80601f01602080910402602001604051908101604052809291908181526020018280546122be90613cdc565b801561230b5780601f106122e05761010080835404028352916020019161230b565b820191906000526020600020905b8154815290600101906020018083116122ee57829003601f168201915b5050505050925094509450945094509450612322565b5b91939590929450565b60066020528060005260406000206000915090508060000160405180608001604052908160008201805461235e90613cdc565b80601f016020809104026020016040519081016040528092919081815260200182805461238a90613cdc565b80156123d75780601f106123ac576101008083540402835291602001916123d7565b820191906000526020600020905b8154815290600101906020018083116123ba57829003601f168201915b505050505081526020016001820180546123f090613cdc565b80601f016020809104026020016040519081016040528092919081815260200182805461241c90613cdc565b80156124695780601f1061243e57610100808354040283529160200191612469565b820191906000526020600020905b81548152906001019060200180831161244c57829003601f168201915b505050505081526020016002820154815260200160038201548152505090806004016040518060800160405290816000820180546124a690613cdc565b80601f01602080910402602001604051908101604052809291908181526020018280546124d290613cdc565b801561251f5780601f106124f45761010080835404028352916020019161251f565b820191906000526020600020905b81548152906001019060200180831161250257829003601f168201915b5050505050815260200160018201805461253890613cdc565b80601f016020809104026020016040519081016040528092919081815260200182805461256490613cdc565b80156125b15780601f10612586576101008083540402835291602001916125b1565b820191906000526020600020905b81548152906001019060200180831161259457829003601f168201915b5050505050815260200160028201548152602001600382015481525050908060080180546125de90613cdc565b80601f016020809104026020016040519081016040528092919081815260200182805461260a90613cdc565b80156126575780601f1061262c57610100808354040283529160200191612657565b820191906000526020600020905b81548152906001019060200180831161263a57829003601f168201915b5050505050908060090160009054906101000a900460ff16908060090160019054906101000a900460ff16905085565b60001515600860003373ffffffffffffffffffffffffffffffffffffffff1673ffffffffffffffffffffffffffffffffffffffff16815260200190815260200160002060030160009054906101000a900460ff161515146126e757600080fd5b60005b6003548110156129165781600660008381526020019081526020016000206000016003015414156127fd576006600082815260200190815260200160002060090160009054906101000a900460ff16801561276657506006600082815260200190815260200160002060090160019054906101000a900460ff16155b156127f85760016006600083815260200190815260200160002060000160020160008282546127959190613bdf565b925050819055506001600860003373ffffffffffffffffffffffffffffffffffffffff1673ffffffffffffffffffffffffffffffffffffffff16815260200190815260200160002060030160006101000a81548160ff0219169083151502179055505b612903565b8160066000838152602001908152602001600020600401600301541415612902576006600082815260200190815260200160002060090160009054906101000a900460ff16801561286f57506006600082815260200190815260200160002060090160019054906101000a900460ff16155b1561290157600160066000838152602001908152602001600020600401600201600082825461289e9190613bdf565b925050819055506001600860003373ffffffffffffffffffffffffffffffffffffffff1673ffffffffffffffffffffffffffffffffffffffff16815260200190815260200160002060030160006101000a81548160ff0219169083151502179055505b5b5b808061290e90613c35565b9150506126ea565b5050565b6000600b54905090565b600080600090505b600354811015612a22576129de60066000838152602001908152602001600020600801805461295a90613cdc565b80601f016020809104026020016040519081016040528092919081815260200182805461298690613cdc565b80156129d35780601f106129a8576101008083540402835291602001916129d3565b820191906000526020600020905b8154815290600101906020018083116129b657829003601f168201915b50505050508461326c565b15612a0f576006600082815260200190815260200160002060090160019054906101000a900460ff16915050612a24565b8080612a1a90613c35565b91505061292c565b505b919050565b60078181548110612a3957600080fd5b906000526020600020016000915054906101000a900473ffffffffffffffffffffffffffffffffffffffff1681565b60008054906101000a900473ffffffffffffffffffffffffffffffffffffffff1673ffffffffffffffffffffffffffffffffffffffff163373ffffffffffffffffffffffffffffffffffffffff1614612ac057600080fd5b60006040518060800160405280878152602001858152602001600081526020016001548152509050806004600060015481526020019081526020016000206000820151816000019080519060200190612b1a9291906132c5565b506020820151816001019080519060200190612b379291906132c5565b5060408201518160020155606082015181600301559050506001806000828254612b619190613bdf565b9250508190555060006040518060800160405280878152602001858152602001600081526020016001548152509050806004600060015481526020019081526020016000206000820151816000019080519060200190612bc29291906132c5565b506020820151816001019080519060200190612bdf9291906132c5565b5060408201518160020155606082015181600301559050506001806000828254612c099190613bdf565b9250508190555060006040518060a00160405280848152602001838152602001858152602001600015158152602001600015158152509050806006600060035481526020019081526020016000206000820151816000016000820151816000019080519060200190612c7c9291906132c5565b506020820151816001019080519060200190612c999291906132c5565b50604082015181600201556060820151816003015550506020820151816004016000820151816000019080519060200190612cd59291906132c5565b506020820151816001019080519060200190612cf29291906132c5565b50604082015181600201556060820151816003015550506040820151816008019080519060200190612d259291906132c5565b5060608201518160090160006101000a81548160ff02191690831515021790555060808201518160090160016101000a81548160ff021916908315150217905550905050836005600060035481526020019081526020016000209080519060200190612d929291906132c5565b50600160036000828254612da69190613bdf565b925050819055505050505050505050565b60008054906101000a900473ffffffffffffffffffffffffffffffffffffffff1673ffffffffffffffffffffffffffffffffffffffff163373ffffffffffffffffffffffffffffffffffffffff1614612e0f57600080fd5b60005b600354811015612f3b57612ec4600660008381526020019081526020016000206008018054612e4090613cdc565b80601f0160208091040260200160405190810160405280929190818152602001828054612e6c90613cdc565b8015612eb95780601f10612e8e57610100808354040283529160200191612eb9565b820191906000526020600020905b815481529060010190602001808311612e9c57829003601f168201915b50505050508361326c565b15612f285760016006600083815260200190815260200160002060090160006101000a81548160ff02191690831515021790555060006006600083815260200190815260200160002060090160016101000a81548160ff0219169083151502179055505b8080612f3390613c35565b915050612e12565b5050565b60056020528060005260406000206000915090508054612f5e90613cdc565b80601f0160208091040260200160405190810160405280929190818152602001828054612f8a90613cdc565b8015612fd75780601f10612fac57610100808354040283529160200191612fd7565b820191906000526020600020905b815481529060010190602001808311612fba57829003601f168201915b505050505081565b600080600090505b6003548110156130dd5761309960066000838152602001908152602001600020600801805461301590613cdc565b80601f016020809104026020016040519081016040528092919081815260200182805461304190613cdc565b801561308e5780601f106130635761010080835404028352916020019161308e565b820191906000526020600020905b81548152906001019060200180831161307157829003601f168201915b50505050508461326c565b156130ca576006600082815260200190815260200160002060090160009054906101000a900460ff169150506130df565b80806130d590613c35565b915050612fe7565b505b919050565b60008054906101000a900473ffffffffffffffffffffffffffffffffffffffff1673ffffffffffffffffffffffffffffffffffffffff163373ffffffffffffffffffffffffffffffffffffffff161461313c57600080fd5b60005b600354811015613268576131f160066000838152602001908152602001600020600801805461316d90613cdc565b80601f016020809104026020016040519081016040528092919081815260200182805461319990613cdc565b80156131e65780601f106131bb576101008083540402835291602001916131e6565b820191906000526020600020905b8154815290600101906020018083116131c957829003601f168201915b50505050508361326c565b156132555760016006600083815260200190815260200160002060090160016101000a81548160ff02191690831515021790555060006006600083815260200190815260200160002060090160006101000a81548160ff0219169083151502179055505b808061326090613c35565b91505061313f565b5050565b60008160405160200161327f9190613d4a565b60405160208183030381529060405280519060200120836040516020016132a69190613d4a565b6040516020818303038152906040528051906020012014905092915050565b8280546132d190613cdc565b90600052602060002090601f0160209004810192826132f3576000855561333a565b82601f1061330c57805160ff191683800117855561333a565b8280016001018555821561333a579182015b8281111561333957825182559160200191906001019061331e565b5b509050613347919061334b565b5090565b5b8082111561336457600081600090555060010161334c565b5090565b6000604051905090565b600080fd5b600080fd5b6000819050919050565b61338f8161337c565b811461339a57600080fd5b50565b6000813590506133ac81613386565b92915050565b6000602082840312156133c8576133c7613372565b5b60006133d68482850161339d565b91505092915050565b6133e88161337c565b82525050565b600060208201905061340360008301846133df565b92915050565b600080fd5b600080fd5b6000601f19601f8301169050919050565b7f4e487b7100000000000000000000000000000000000000000000000000000000600052604160045260246000fd5b61345c82613413565b810181811067ffffffffffffffff8211171561347b5761347a613424565b5b80604052505050565b600061348e613368565b905061349a8282613453565b919050565b600067ffffffffffffffff8211156134ba576134b9613424565b5b6134c382613413565b9050602081019050919050565b82818337600083830152505050565b60006134f26134ed8461349f565b613484565b90508281526020810184848401111561350e5761350d61340e565b5b6135198482856134d0565b509392505050565b600082601f83011261353657613535613409565b5b81356135468482602086016134df565b91505092915050565b6000806040838503121561356657613565613372565b5b600083013567ffffffffffffffff81111561358457613583613377565b5b61359085828601613521565b925050602083013567ffffffffffffffff8111156135b1576135b0613377565b5b6135bd85828601613521565b9150509250929050565b600073ffffffffffffffffffffffffffffffffffffffff82169050919050565b60006135f2826135c7565b9050919050565b613602816135e7565b811461360d57600080fd5b50565b60008135905061361f816135f9565b92915050565b60006020828403121561363b5761363a613372565b5b600061364984828501613610565b91505092915050565b61365b816135e7565b82525050565b600081519050919050565b600082825260208201905092915050565b60005b8381101561369b578082015181840152602081019050613680565b838111156136aa576000848401525b50505050565b60006136bb82613661565b6136c5818561366c565b93506136d581856020860161367d565b6136de81613413565b840191505092915050565b60008115159050919050565b6136fe816136e9565b82525050565b600060a0820190506137196000830188613652565b818103602083015261372b81876136b0565b9050818103604083015261373f81866136b0565b905061374e60608301856136f5565b61375b60808301846136f5565b9695505050505050565b6000608082019050818103600083015261377f81876136b0565b9050818103602083015261379381866136b0565b90506137a260408301856133df565b6137af60608301846133df565b95945050505050565b6000806000606084860312156137d1576137d0613372565b5b60006137df86828701613610565b935050602084013567ffffffffffffffff811115613800576137ff613377565b5b61380c86828701613521565b925050604084013567ffffffffffffffff81111561382d5761382c613377565b5b61383986828701613521565b9150509250925092565b60006020820190506138586000830184613652565b92915050565b6000806040838503121561387557613874613372565b5b600061388385828601613610565b92505060206138948582860161339d565b9150509250929050565b600060a0820190506138b360008301886133df565b6138c060208301876133df565b81810360408301526138d281866136b0565b90506138e160608301856136f5565b6138ee60808301846136f5565b9695505050505050565b600082825260208201905092915050565b600061391482613661565b61391e81856138f8565b935061392e81856020860161367d565b61393781613413565b840191505092915050565b61394b8161337c565b82525050565b6000608083016000830151848203600086015261396e8282613909565b915050602083015184820360208601526139888282613909565b915050604083015161399d6040860182613942565b5060608301516139b06060860182613942565b508091505092915050565b600060a08201905081810360008301526139d58188613951565b905081810360208301526139e98187613951565b905081810360408301526139fd81866136b0565b9050613a0c60608301856136f5565b613a1960808301846136f5565b9695505050505050565b600060208284031215613a3957613a38613372565b5b600082013567ffffffffffffffff811115613a5757613a56613377565b5b613a6384828501613521565b91505092915050565b6000602082019050613a8160008301846136f5565b92915050565b600080600080600060a08688031215613aa357613aa2613372565b5b600086013567ffffffffffffffff811115613ac157613ac0613377565b5b613acd88828901613521565b955050602086013567ffffffffffffffff811115613aee57613aed613377565b5b613afa88828901613521565b945050604086013567ffffffffffffffff811115613b1b57613b1a613377565b5b613b2788828901613521565b935050606086013567ffffffffffffffff811115613b4857613b47613377565b5b613b5488828901613521565b925050608086013567ffffffffffffffff811115613b7557613b74613377565b5b613b8188828901613521565b9150509295509295909350565b60006020820190508181036000830152613ba881846136b0565b905092915050565b7f4e487b7100000000000000000000000000000000000000000000000000000000600052601160045260246000fd5b6000613bea8261337c565b9150613bf58361337c565b9250827fffffffffffffffffffffffffffffffffffffffffffffffffffffffffffffffff03821115613c2a57613c29613bb0565b5b828201905092915050565b6000613c408261337c565b91507fffffffffffffffffffffffffffffffffffffffffffffffffffffffffffffffff821415613c7357613c72613bb0565b5b600182019050919050565b7f4e487b7100000000000000000000000000000000000000000000000000000000600052603260045260246000fd5b7f4e487b7100000000000000000000000000000000000000000000000000000000600052602260045260246000fd5b60006002820490506001821680613cf457607f821691505b60208210811415613d0857613d07613cad565b5b50919050565b600081905092915050565b6000613d2482613661565b613d2e8185613d0e565b9350613d3e81856020860161367d565b80840191505092915050565b6000613d568284613d19565b91508190509291505056fea2646970667358221220fd43147bff485b3ceb4a82e9a8dd8da701fc83a2957d7d3eaeeb352f69a2dbd364736f6c634300080a0033",
  "immutableReferences": {},
  "source": "pragma solidity >0.6.0;\r\npragma experimental ABIEncoderV2;\r\n\r\ncontract Election\r\n{\r\n   address public owner; // Address of the account which was used to deploy contract\r\n   \r\n   uint candidateCount; // The number of candidates\r\n   uint voterCount; // The number of voters\r\n   uint pollsCount; // The number of polls\r\n\r\n   // The structure of a candidate\r\n   struct Candidate\r\n   {\r\n      string name;\r\n      string url;\r\n      uint voteCount;\r\n      uint candidateId;\r\n   }\r\n\r\n   // Every poll has 2 candidates and a question (prompt)\r\n   struct Poll\r\n   {\r\n      Candidate candidate1;\r\n      Candidate candidate2;\r\n\r\n      string prompt;\r\n\r\n      // Bool values to state if election has started or not\r\n      bool start;\r\n      bool end;\r\n   }\r\n\r\n   /// DO NOT TOUCH\r\n   // The structure of a voter\r\n   struct Voter\r\n   {\r\n      address voterAddress;\r\n      string name;\r\n      string email;\r\n      bool hasVoted;\r\n      bool isVerified;\r\n   }\r\n\r\n   // Key-value mapping for candidates\r\n   mapping(uint => Candidate) public candidateDetails;\r\n\r\n   // Mapping of all the prompts\r\n   mapping(uint => string) public pollsPrompts;\r\n\r\n\r\n   // Details about every poll\r\n   mapping(uint => Poll) public pollsDetails;\r\n\r\n\r\n   /// DO NOT TOUCH\r\n   // Array of address to store address of voters\r\n   address[] public voters;\r\n\r\n   // Mapping of address to Voter\r\n   mapping(address => Voter) public voterDetails;\r\n\r\n\r\n   // ###########################################################################################\r\n   // FOR TESTING PURPOSES\r\n   address[] public votersTest;\r\n\r\n   mapping(address => Voter) public voterDetailsTest;\r\n\r\n   uint voterCountTest; // The number of voters\r\n   \r\n   \r\n   // Constructor (set default values to false or 0)\r\n   constructor() public\r\n   {\r\n      owner = msg.sender;\r\n      candidateCount = 0;\r\n      voterCount = 0;\r\n      pollsCount = 0;\r\n      voterCountTest = 0;\r\n   }\r\n\r\n   // Function to return address of owner\r\n   function getOwner() public view returns(address)\r\n   {\r\n      return owner;\r\n   }\r\n\r\n   // Modifier to allow only owner/admin to access\r\n   modifier onlyAdmin()\r\n   {\r\n      require(msg.sender == owner);\r\n      _;\r\n   } \r\n\r\n\r\n   // Function to add a new poll, only by admin\r\n   function addPoll(string memory _candidateName1, string memory _candidateName2, string memory _candidateURL1, string memory _candidateURL2, string memory prompt) public onlyAdmin\r\n   {\r\n      // Add the two candidates of a poll\r\n      Candidate memory newCandidate1 = Candidate({\r\n        name : _candidateName1,\r\n        url : _candidateURL1,\r\n        voteCount : 0,\r\n        candidateId : candidateCount\r\n      });\r\n\r\n      // Insert it into the candidates array\r\n      candidateDetails[candidateCount] = newCandidate1;\r\n\r\n      candidateCount += 1;\r\n\r\n      Candidate memory newCandidate2 = Candidate({\r\n        name : _candidateName2,\r\n        url : _candidateURL2,\r\n        voteCount : 0,\r\n        candidateId : candidateCount\r\n      });\r\n\r\n      candidateDetails[candidateCount] = newCandidate2;\r\n\r\n      candidateCount += 1;      \r\n\r\n      // Create a new poll with candidate details and the prompt\r\n      Poll memory poll = Poll({\r\n         candidate1 : newCandidate1,\r\n         candidate2 : newCandidate2,\r\n         prompt: prompt,\r\n         start: false,\r\n         end: false\r\n      });\r\n\r\n      pollsDetails[pollsCount] = poll;\r\n\r\n      /////////////////////////////////////////////////////////\r\n      // TODO: check if this is needed anymore\r\n      pollsPrompts[pollsCount] = prompt;\r\n      /////////////////////////////////////////////////////////\r\n\r\n      pollsCount += 1;\r\n      \r\n   }\r\n\r\n   function getCandidateDetails(uint candidateId) public view returns (string memory, string memory, uint, uint)\r\n   {\r\n      if (candidateCount > candidateId && 0 <= candidateId)\r\n      {\r\n         return (candidateDetails[candidateId].name,\r\n                  candidateDetails[candidateId].url,\r\n                  candidateDetails[candidateId].voteCount,\r\n                  candidateDetails[candidateId].candidateId);\r\n      }\r\n   }\r\n\r\n   // Get total number of candidates\r\n   function getCandidateNumber() public view returns (uint)\r\n   {\r\n      return candidateCount;\r\n   }\r\n   \r\n   // Get total number of polls\r\n   function getPollsNumber() public view returns (uint)\r\n   {\r\n      return pollsCount;\r\n   }   \r\n\r\n\r\n\r\n   /// DO NOT TOUCH\r\n   // Function to add as voter but will be verified by owner\r\n   function requestVoter(string memory _name, string memory _email) public\r\n   {\r\n      Voter memory newVoter = Voter({\r\n        voterAddress : msg.sender,\r\n        name : _name,\r\n        email: _email,\r\n        hasVoted : false,\r\n        isVerified : false\r\n      });\r\n\r\n      // Add a new voter to the internal array\r\n      voterDetails[msg.sender] = newVoter;\r\n\r\n      // Insert it to the array of voters (that voted)\r\n      voters.push(msg.sender);\r\n\r\n      // Increment the number of votes\r\n      voterCount += 1;\r\n   }\r\n\r\n   // ###########################################################################################\r\n   // FOR TESTING PURPOSES\r\n   function requestVoterTest(address addressVoter, string memory _name, string memory _email) public\r\n   {\r\n      Voter memory newVoter = Voter({\r\n        voterAddress : addressVoter,\r\n        name : _name,\r\n        email: _email,\r\n        hasVoted : false,\r\n        isVerified : false\r\n      });\r\n\r\n      // Add a new voter to the internal array\r\n      voterDetailsTest[addressVoter] = newVoter;\r\n\r\n      // Insert it to the array of voters (that voted)\r\n      votersTest.push(addressVoter);\r\n\r\n      // Increment the number of votes\r\n      voterCountTest += 1;\r\n   }\r\n\r\n   function getVoterDetails(uint voterId) public view returns (address, string memory, string memory, bool, bool)\r\n   {\r\n      if (voterCount > voterId && 0 <= voterId)\r\n      {\r\n         address addr = voters[voterId];\r\n\r\n         return (voterDetails[addr].voterAddress,\r\n                  voterDetails[addr].name,\r\n                  voterDetails[addr].email,\r\n                  voterDetails[addr].hasVoted,\r\n                  voterDetails[addr].isVerified);\r\n      }\r\n   }\r\n\r\n   function getPollDetails(uint pollId) public view returns (uint, uint, string memory, bool, bool)\r\n   {\r\n      if (pollsCount > pollId && pollId >= 0)\r\n      {\r\n         return (pollsDetails[pollId].candidate1.candidateId,\r\n                pollsDetails[pollId].candidate2.candidateId,\r\n                pollsDetails[pollId].prompt,\r\n                pollsDetails[pollId].start,\r\n                pollsDetails[pollId].end);\r\n      }\r\n   }\r\n\r\n   // ###########################################################################################\r\n   // FOR TESTING PURPOSES\r\n   function getVoterDetailsTest(address addr) public view returns (address, string memory, string memory, bool, bool)\r\n   {\r\n      for (uint voterIndex = 0; voterIndex < voterCountTest; voterIndex++) \r\n      {\r\n         if (votersTest[voterIndex] == addr)\r\n         {\r\n            return (voterDetailsTest[addr].voterAddress,\r\n               voterDetailsTest[addr].name,\r\n               voterDetailsTest[addr].email,\r\n               voterDetailsTest[addr].hasVoted,\r\n               voterDetailsTest[addr].isVerified);\r\n         }\r\n      }\r\n      \r\n   }\r\n\r\n   \r\n   /// DO NOT TOUCH\r\n   // Function to return number of voters\r\n   function getVoterCount() public view returns (uint)\r\n   {\r\n      return voterCount;\r\n   }\r\n\r\n   // Make checks to see if the voter is verified\r\n   function verifyVoter(address _address) public onlyAdmin\r\n   {\r\n      voterDetails[_address].isVerified = true;\r\n   }\r\n\r\n\r\n   /// DO NOT TOUCH\r\n   // Function to vote a candidate, once you are verified as voter\r\n   function vote(uint candidateId) public\r\n   {\r\n      // The consensus for voting as a typical voter\r\n      require(voterDetails[msg.sender].hasVoted == false);\r\n      require(voterDetails[msg.sender].isVerified == true);\r\n\r\n      uint _pollIndex;\r\n      for (_pollIndex = 0; _pollIndex < pollsCount; _pollIndex++)\r\n      {\r\n         if (pollsDetails[_pollIndex].candidate1.candidateId == candidateId)\r\n         {\r\n            if (pollsDetails[_pollIndex].start && !pollsDetails[_pollIndex].end)\r\n            {\r\n               pollsDetails[_pollIndex].candidate1.voteCount += 1;\r\n\r\n               voterDetails[msg.sender].hasVoted = true;\r\n            }          \r\n         }\r\n         else if(pollsDetails[_pollIndex].candidate2.candidateId == candidateId)\r\n         {\r\n            if (pollsDetails[_pollIndex].start && !pollsDetails[_pollIndex].end)\r\n            {\r\n               pollsDetails[_pollIndex].candidate2.voteCount += 1;\r\n\r\n               voterDetails[msg.sender].hasVoted = true;\r\n            }\r\n         }\r\n      }      \r\n   }\r\n\r\n   function voteAdmin(uint candidateId) public\r\n   {\r\n      // The consensus for voting as administrator\r\n      require(voterDetails[msg.sender].hasVoted == false);\r\n\r\n      uint _pollIndex;\r\n      for (_pollIndex = 0; _pollIndex < pollsCount; _pollIndex++)\r\n      {\r\n         if (pollsDetails[_pollIndex].candidate1.candidateId == candidateId)\r\n         {\r\n            if (pollsDetails[_pollIndex].start && !pollsDetails[_pollIndex].end)\r\n            {\r\n               pollsDetails[_pollIndex].candidate1.voteCount += 1;\r\n\r\n               voterDetails[msg.sender].hasVoted = true;\r\n            }          \r\n         }\r\n         else if(pollsDetails[_pollIndex].candidate2.candidateId == candidateId)\r\n         {\r\n            if (pollsDetails[_pollIndex].start && !pollsDetails[_pollIndex].end)\r\n            {\r\n               pollsDetails[_pollIndex].candidate2.voteCount += 1;\r\n\r\n               voterDetails[msg.sender].hasVoted = true;\r\n            }\r\n         }\r\n      }      \r\n   }\r\n\r\n\r\n\r\n\r\n   // ###########################################################################################\r\n   // FOR TESTING PURPOSES\r\n   function getVoterCountTest() public view returns (uint)\r\n   {\r\n      return voterCountTest;\r\n   }\r\n\r\n   // Make checks to see if the voter is verified\r\n   function verifyVoterTest(address _address) public onlyAdmin\r\n   {\r\n      voterDetailsTest[_address].isVerified = true;\r\n   }\r\n\r\n   // Function to vote a candidate, once you are verified as voter\r\n   function voteTest(address voterAddress, uint candidateId) public\r\n   {\r\n      // The consensus for voting as a typical voter\r\n      if (voterDetailsTest[voterAddress].hasVoted)\r\n      {\r\n         return;\r\n      }\r\n      if (!voterDetailsTest[voterAddress].isVerified)\r\n      {\r\n         return;\r\n      }\r\n\r\n      for (uint pollIndex = 0; pollIndex < pollsCount; pollIndex++)\r\n      {\r\n         for (uint candidateIndex = 0; candidateIndex < candidateCount; candidateIndex++)\r\n         {\r\n            if (pollsDetails[pollIndex].candidate1.candidateId == candidateDetails[candidateIndex].candidateId\r\n                  && candidateDetails[candidateIndex].candidateId  == candidateId)\r\n            {\r\n               if (pollsDetails[pollIndex].start && !pollsDetails[pollIndex].end)\r\n               {\r\n                  candidateDetails[candidateIndex].voteCount += 1;\r\n                  voterDetailsTest[voterAddress].hasVoted = true;\r\n               }        \r\n            }\r\n            else if(pollsDetails[pollIndex].candidate2.candidateId == candidateDetails[candidateIndex].candidateId\r\n                  && candidateDetails[candidateIndex].candidateId  == candidateId)\r\n            {\r\n               if (pollsDetails[pollIndex].start && !pollsDetails[pollIndex].end)\r\n               {\r\n                  candidateDetails[candidateIndex].voteCount += 1;\r\n                  voterDetailsTest[voterAddress].hasVoted = true;\r\n               }\r\n            }\r\n         }\r\n      }\r\n      \r\n   }\r\n\r\n   function voteAdminTest(address ownerAddr, uint candidateId) public\r\n   {\r\n      // The consensus for voting as administrator\r\n      if (voterDetailsTest[ownerAddr].hasVoted)\r\n      {\r\n         return;\r\n      }\r\n\r\n      for (uint pollIndex = 0; pollIndex < pollsCount; pollIndex++)\r\n      {\r\n         for (uint candidateIndex = 0; candidateIndex < candidateCount; candidateIndex++)\r\n         {\r\n            if (pollsDetails[pollIndex].candidate1.candidateId == candidateDetails[candidateIndex].candidateId\r\n                  && candidateDetails[candidateIndex].candidateId  == candidateId)\r\n            {\r\n               if (pollsDetails[pollIndex].start && !pollsDetails[pollIndex].end)\r\n               {\r\n                  candidateDetails[candidateIndex].voteCount += 1;\r\n                  voterDetailsTest[ownerAddr].hasVoted = true;\r\n               }        \r\n            }\r\n            else if (pollsDetails[pollIndex].candidate2.candidateId == candidateDetails[candidateIndex].candidateId\r\n                  && candidateDetails[candidateIndex].candidateId  == candidateId)\r\n            {\r\n               if (pollsDetails[pollIndex].start && !pollsDetails[pollIndex].end)\r\n               {\r\n                  candidateDetails[candidateIndex].voteCount += 1;\r\n                  voterDetailsTest[ownerAddr].hasVoted = true;\r\n               }\r\n            }\r\n         }\r\n      }\r\n   }\r\n\r\n\r\n\r\n   // Helper function to compare 2 strings\r\n   // as memory and reference string cannot be compared in Soldity (thanks, Obama)\r\n   function stringsEquals(string memory a, string memory b) private pure returns (bool)\r\n   {\r\n      return (keccak256(abi.encodePacked((a))) == keccak256(abi.encodePacked((b))));\r\n   }\r\n   \r\n   // CHECK TO SEE IF NEEDED TOUCH\r\n   function startElection(string memory prompt) public onlyAdmin\r\n   {\r\n      uint _pollIndex;\r\n      \r\n      for (_pollIndex = 0; _pollIndex < pollsCount; _pollIndex++)\r\n      {\r\n         if (stringsEquals(pollsDetails[_pollIndex].prompt, prompt))\r\n         {\r\n            pollsDetails[_pollIndex].start = true;\r\n            pollsDetails[_pollIndex].end = false;\r\n         }\r\n      }\r\n   }\r\n\r\n   function endElection(string memory prompt) public onlyAdmin\r\n   {\r\n      uint _pollIndex;\r\n      \r\n      for (_pollIndex = 0; _pollIndex < pollsCount; _pollIndex++)\r\n      {\r\n         if (stringsEquals(pollsDetails[_pollIndex].prompt, prompt))\r\n         {\r\n            pollsDetails[_pollIndex].end = true;\r\n            pollsDetails[_pollIndex].start = false;\r\n         }\r\n      }\r\n   }\r\n\r\n   function getStart(string memory prompt) public view returns (bool)\r\n   {\r\n      uint _pollIndex;\r\n      \r\n      for (_pollIndex = 0; _pollIndex < pollsCount; _pollIndex++)\r\n      {\r\n         if (stringsEquals(pollsDetails[_pollIndex].prompt, prompt))\r\n         {\r\n            return pollsDetails[_pollIndex].start;\r\n         }\r\n      }\r\n   }\r\n\r\n   function getEnd(string memory prompt) public view returns (bool)\r\n   {\r\n      uint _pollIndex;\r\n      \r\n      for (_pollIndex = 0; _pollIndex < pollsCount; _pollIndex++)\r\n      {\r\n         if (stringsEquals(pollsDetails[_pollIndex].prompt, prompt))\r\n         {\r\n            return pollsDetails[_pollIndex].end;\r\n         }\r\n      }\r\n   }\r\n}",
  "sourcePath": "D:\\facultate\\Anul 6\\protectia informatiei in e-sisteme\\proiect blockchain e-voting\\contracts\\Election.sol",
  "compiler": {
    "name": "solc",
    "version": "0.8.10+commit.fc410830.Emscripten.clang"
  },
  "schemaVersion": "3.4.3",
  "updatedAt": "2022-01-27T16:35:16.889Z",
  "networkType": "ethereum",
  "devdoc": {
    "kind": "dev",
    "methods": {},
    "version": 1
  },
  "userdoc": {
    "kind": "user",
    "methods": {
      "getVoterCount()": {
        "notice": "DO NOT TOUCH"
      },
      "requestVoter(string,string)": {
        "notice": "DO NOT TOUCH"
      },
      "vote(uint256)": {
        "notice": "DO NOT TOUCH"
      },
      "voters(uint256)": {
        "notice": "DO NOT TOUCH"
      }
    },
    "version": 1
  }
}